{
    "_format": "hh-sol-artifact-1",
    "contractName": "RumiaNFT",
    "sourceName": "contracts/RumiaNFT.sol",
    "abi": [
        {
            "inputs": [],
            "stateMutability": "nonpayable",
            "type": "constructor"
        },
        {
            "anonymous": false,
            "inputs": [
                {
                    "indexed": true,
                    "internalType": "address",
                    "name": "owner",
                    "type": "address"
                },
                {
                    "indexed": true,
                    "internalType": "address",
                    "name": "approved",
                    "type": "address"
                },
                {
                    "indexed": true,
                    "internalType": "uint256",
                    "name": "tokenId",
                    "type": "uint256"
                }
            ],
            "name": "Approval",
            "type": "event"
        },
        {
            "anonymous": false,
            "inputs": [
                {
                    "indexed": true,
                    "internalType": "address",
                    "name": "owner",
                    "type": "address"
                },
                {
                    "indexed": true,
                    "internalType": "address",
                    "name": "operator",
                    "type": "address"
                },
                {
                    "indexed": false,
                    "internalType": "bool",
                    "name": "approved",
                    "type": "bool"
                }
            ],
            "name": "ApprovalForAll",
            "type": "event"
        },
        {
            "anonymous": false,
            "inputs": [
                {
                    "indexed": true,
                    "internalType": "address",
                    "name": "previousOwner",
                    "type": "address"
                },
                {
                    "indexed": true,
                    "internalType": "address",
                    "name": "newOwner",
                    "type": "address"
                }
            ],
            "name": "OwnershipTransferred",
            "type": "event"
        },
        {
            "anonymous": false,
            "inputs": [
                {
                    "indexed": true,
                    "internalType": "address",
                    "name": "from",
                    "type": "address"
                },
                {
                    "indexed": true,
                    "internalType": "address",
                    "name": "to",
                    "type": "address"
                },
                {
                    "indexed": true,
                    "internalType": "uint256",
                    "name": "tokenId",
                    "type": "uint256"
                }
            ],
            "name": "Transfer",
            "type": "event"
        },
        {
            "inputs": [
                {
                    "internalType": "address",
                    "name": "to",
                    "type": "address"
                },
                {
                    "internalType": "uint256",
                    "name": "tokenId",
                    "type": "uint256"
                }
            ],
            "name": "approve",
            "outputs": [],
            "stateMutability": "nonpayable",
            "type": "function"
        },
        {
            "inputs": [
                {
                    "internalType": "address",
                    "name": "owner",
                    "type": "address"
                }
            ],
            "name": "balanceOf",
            "outputs": [
                {
                    "internalType": "uint256",
                    "name": "",
                    "type": "uint256"
                }
            ],
            "stateMutability": "view",
            "type": "function"
        },
        {
            "inputs": [
                {
                    "internalType": "uint256",
                    "name": "tokenId",
                    "type": "uint256"
                }
            ],
            "name": "burn",
            "outputs": [],
            "stateMutability": "nonpayable",
            "type": "function"
        },
        {
            "inputs": [
                {
                    "internalType": "uint256",
                    "name": "tokenId",
                    "type": "uint256"
                }
            ],
            "name": "getApproved",
            "outputs": [
                {
                    "internalType": "address",
                    "name": "",
                    "type": "address"
                }
            ],
            "stateMutability": "view",
            "type": "function"
        },
        {
            "inputs": [
                {
                    "internalType": "address",
                    "name": "owner",
                    "type": "address"
                },
                {
                    "internalType": "address",
                    "name": "operator",
                    "type": "address"
                }
            ],
            "name": "isApprovedForAll",
            "outputs": [
                {
                    "internalType": "bool",
                    "name": "",
                    "type": "bool"
                }
            ],
            "stateMutability": "view",
            "type": "function"
        },
        {
            "inputs": [],
            "name": "name",
            "outputs": [
                {
                    "internalType": "string",
                    "name": "",
                    "type": "string"
                }
            ],
            "stateMutability": "view",
            "type": "function"
        },
        {
            "inputs": [],
            "name": "owner",
            "outputs": [
                {
                    "internalType": "address",
                    "name": "",
                    "type": "address"
                }
            ],
            "stateMutability": "view",
            "type": "function"
        },
        {
            "inputs": [
                {
                    "internalType": "uint256",
                    "name": "tokenId",
                    "type": "uint256"
                }
            ],
            "name": "ownerOf",
            "outputs": [
                {
                    "internalType": "address",
                    "name": "",
                    "type": "address"
                }
            ],
            "stateMutability": "view",
            "type": "function"
        },
        {
            "inputs": [],
            "name": "renounceOwnership",
            "outputs": [],
            "stateMutability": "nonpayable",
            "type": "function"
        },
        {
            "inputs": [
                {
                    "internalType": "address",
                    "name": "to",
                    "type": "address"
                },
                {
                    "internalType": "string",
                    "name": "uri",
                    "type": "string"
                }
            ],
            "name": "safeMint",
            "outputs": [],
            "stateMutability": "nonpayable",
            "type": "function"
        },
        {
            "inputs": [
                {
                    "internalType": "address",
                    "name": "to",
                    "type": "address"
                },
                {
                    "internalType": "string[]",
                    "name": "uris",
                    "type": "string[]"
                }
            ],
            "name": "safeMintBatch",
            "outputs": [],
            "stateMutability": "nonpayable",
            "type": "function"
        },
        {
            "inputs": [
                {
                    "internalType": "address",
                    "name": "from",
                    "type": "address"
                },
                {
                    "internalType": "address",
                    "name": "to",
                    "type": "address"
                },
                {
                    "internalType": "uint256",
                    "name": "tokenId",
                    "type": "uint256"
                }
            ],
            "name": "safeTransferFrom",
            "outputs": [],
            "stateMutability": "nonpayable",
            "type": "function"
        },
        {
            "inputs": [
                {
                    "internalType": "address",
                    "name": "from",
                    "type": "address"
                },
                {
                    "internalType": "address",
                    "name": "to",
                    "type": "address"
                },
                {
                    "internalType": "uint256",
                    "name": "tokenId",
                    "type": "uint256"
                },
                {
                    "internalType": "bytes",
                    "name": "_data",
                    "type": "bytes"
                }
            ],
            "name": "safeTransferFrom",
            "outputs": [],
            "stateMutability": "nonpayable",
            "type": "function"
        },
        {
            "inputs": [
                {
                    "internalType": "address",
                    "name": "operator",
                    "type": "address"
                },
                {
                    "internalType": "bool",
                    "name": "approved",
                    "type": "bool"
                }
            ],
            "name": "setApprovalForAll",
            "outputs": [],
            "stateMutability": "nonpayable",
            "type": "function"
        },
        {
            "inputs": [
                {
                    "internalType": "bytes4",
                    "name": "interfaceId",
                    "type": "bytes4"
                }
            ],
            "name": "supportsInterface",
            "outputs": [
                {
                    "internalType": "bool",
                    "name": "",
                    "type": "bool"
                }
            ],
            "stateMutability": "view",
            "type": "function"
        },
        {
            "inputs": [],
            "name": "symbol",
            "outputs": [
                {
                    "internalType": "string",
                    "name": "",
                    "type": "string"
                }
            ],
            "stateMutability": "view",
            "type": "function"
        },
        {
            "inputs": [
                {
                    "internalType": "uint256",
                    "name": "index",
                    "type": "uint256"
                }
            ],
            "name": "tokenByIndex",
            "outputs": [
                {
                    "internalType": "uint256",
                    "name": "",
                    "type": "uint256"
                }
            ],
            "stateMutability": "view",
            "type": "function"
        },
        {
            "inputs": [
                {
                    "internalType": "address",
                    "name": "owner",
                    "type": "address"
                },
                {
                    "internalType": "uint256",
                    "name": "index",
                    "type": "uint256"
                }
            ],
            "name": "tokenOfOwnerByIndex",
            "outputs": [
                {
                    "internalType": "uint256",
                    "name": "",
                    "type": "uint256"
                }
            ],
            "stateMutability": "view",
            "type": "function"
        },
        {
            "inputs": [
                {
                    "internalType": "uint256",
                    "name": "tokenId",
                    "type": "uint256"
                }
            ],
            "name": "tokenURI",
            "outputs": [
                {
                    "internalType": "string",
                    "name": "",
                    "type": "string"
                }
            ],
            "stateMutability": "view",
            "type": "function"
        },
        {
            "inputs": [],
            "name": "totalSupply",
            "outputs": [
                {
                    "internalType": "uint256",
                    "name": "",
                    "type": "uint256"
                }
            ],
            "stateMutability": "view",
            "type": "function"
        },
        {
            "inputs": [
                {
                    "internalType": "address",
                    "name": "from",
                    "type": "address"
                },
                {
                    "internalType": "address",
                    "name": "to",
                    "type": "address"
                },
                {
                    "internalType": "uint256",
                    "name": "tokenId",
                    "type": "uint256"
                }
            ],
            "name": "transferFrom",
            "outputs": [],
            "stateMutability": "nonpayable",
            "type": "function"
        },
        {
            "inputs": [
                {
                    "internalType": "address",
                    "name": "newOwner",
                    "type": "address"
                }
            ],
            "name": "transferOwnership",
            "outputs": [],
            "stateMutability": "nonpayable",
            "type": "function"
        }
    ],
    "bytecode": "0x60806040523480156200001157600080fd5b506040518060400160405280600881526020017f52756d69614e46540000000000000000000000000000000000000000000000008152506040518060400160405280600581526020017f52554d4941000000000000000000000000000000000000000000000000000000815250816000908051906020019062000096929190620001a6565b508060019080519060200190620000af929190620001a6565b505050620000d2620000c6620000d860201b60201c565b620000e060201b60201c565b620002bb565b600033905090565b6000600b60009054906101000a900473ffffffffffffffffffffffffffffffffffffffff16905081600b60006101000a81548173ffffffffffffffffffffffffffffffffffffffff021916908373ffffffffffffffffffffffffffffffffffffffff1602179055508173ffffffffffffffffffffffffffffffffffffffff168173ffffffffffffffffffffffffffffffffffffffff167f8be0079c531659141344cd1fd0a4f28419497f9722a3daafe3b4186f6b6457e060405160405180910390a35050565b828054620001b49062000256565b90600052602060002090601f016020900481019282620001d8576000855562000224565b82601f10620001f357805160ff191683800117855562000224565b8280016001018555821562000224579182015b828111156200022357825182559160200191906001019062000206565b5b50905062000233919062000237565b5090565b5b808211156200025257600081600090555060010162000238565b5090565b600060028204905060018216806200026f57607f821691505b602082108114156200028657620002856200028c565b5b50919050565b7f4e487b7100000000000000000000000000000000000000000000000000000000600052602260045260246000fd5b613d6780620002cb6000396000f3fe608060405234801561001057600080fd5b50600436106101425760003560e01c80636d9c51c2116100b8578063a22cb4651161007c578063a22cb46514610375578063b88d4fde14610391578063c87b56dd146103ad578063d204c45e146103dd578063e985e9c5146103f9578063f2fde38b1461042957610142565b80636d9c51c2146102e357806370a08231146102ff578063715018a61461032f5780638da5cb5b1461033957806395d89b411461035757610142565b806323b872dd1161010a57806323b872dd146101ff5780632f745c591461021b57806342842e0e1461024b57806342966c68146102675780634f6ccce7146102835780636352211e146102b357610142565b806301ffc9a71461014757806306fdde0314610177578063081812fc14610195578063095ea7b3146101c557806318160ddd146101e1575b600080fd5b610161600480360381019061015c9190612b34565b610445565b60405161016e9190612fe9565b60405180910390f35b61017f610457565b60405161018c9190613004565b60405180910390f35b6101af60048036038101906101aa9190612b86565b6104e9565b6040516101bc9190612f82565b60405180910390f35b6101df60048036038101906101da9190612af8565b61056e565b005b6101e9610686565b6040516101f691906132c6565b60405180910390f35b6102196004803603810190610214919061294a565b610693565b005b61023560048036038101906102309190612af8565b6106f3565b60405161024291906132c6565b60405180910390f35b6102656004803603810190610260919061294a565b610798565b005b610281600480360381019061027c9190612b86565b6107b8565b005b61029d60048036038101906102989190612b86565b610814565b6040516102aa91906132c6565b60405180910390f35b6102cd60048036038101906102c89190612b86565b6108ab565b6040516102da9190612f82565b60405180910390f35b6102fd60048036038101906102f89190612a14565b61095d565b005b610319600480360381019061031491906128e5565b610a47565b60405161032691906132c6565b60405180910390f35b610337610aff565b005b610341610b87565b60405161034e9190612f82565b60405180910390f35b61035f610bb1565b60405161036c9190613004565b60405180910390f35b61038f600480360381019061038a9190612a68565b610c43565b005b6103ab60048036038101906103a69190612999565b610c59565b005b6103c760048036038101906103c29190612b86565b610cbb565b6040516103d49190613004565b60405180910390f35b6103f760048036038101906103f29190612aa4565b610ccd565b005b610413600480360381019061040e919061290e565b610d7a565b6040516104209190612fe9565b60405180910390f35b610443600480360381019061043e91906128e5565b610e0e565b005b600061045082610f06565b9050919050565b60606000805461046690613548565b80601f016020809104026020016040519081016040528092919081815260200182805461049290613548565b80156104df5780601f106104b4576101008083540402835291602001916104df565b820191906000526020600020905b8154815290600101906020018083116104c257829003601f168201915b5050505050905090565b60006104f482610f80565b610533576040517f08c379a000000000000000000000000000000000000000000000000000000000815260040161052a906131c6565b60405180910390fd5b6004600083815260200190815260200160002060009054906101000a900473ffffffffffffffffffffffffffffffffffffffff169050919050565b6000610579826108ab565b90508073ffffffffffffffffffffffffffffffffffffffff168373ffffffffffffffffffffffffffffffffffffffff1614156105ea576040517f08c379a00000000000000000000000000000000000000000000000000000000081526004016105e190613246565b60405180910390fd5b8073ffffffffffffffffffffffffffffffffffffffff16610609610fec565b73ffffffffffffffffffffffffffffffffffffffff161480610638575061063781610632610fec565b610d7a565b5b610677576040517f08c379a000000000000000000000000000000000000000000000000000000000815260040161066e90613106565b60405180910390fd5b6106818383610ff4565b505050565b6000600880549050905090565b6106a461069e610fec565b826110ad565b6106e3576040517f08c379a00000000000000000000000000000000000000000000000000000000081526004016106da90613266565b60405180910390fd5b6106ee83838361118b565b505050565b60006106fe83610a47565b821061073f576040517f08c379a000000000000000000000000000000000000000000000000000000000815260040161073690613026565b60405180910390fd5b600660008473ffffffffffffffffffffffffffffffffffffffff1673ffffffffffffffffffffffffffffffffffffffff168152602001908152602001600020600083815260200190815260200160002054905092915050565b6107b383838360405180602001604052806000815250610c59565b505050565b6107c96107c3610fec565b826110ad565b610808576040517f08c379a00000000000000000000000000000000000000000000000000000000081526004016107ff906132a6565b60405180910390fd5b610811816113e7565b50565b600061081e610686565b821061085f576040517f08c379a000000000000000000000000000000000000000000000000000000000815260040161085690613286565b60405180910390fd5b60088281548110610899577f4e487b7100000000000000000000000000000000000000000000000000000000600052603260045260246000fd5b90600052602060002001549050919050565b6000806002600084815260200190815260200160002060009054906101000a900473ffffffffffffffffffffffffffffffffffffffff169050600073ffffffffffffffffffffffffffffffffffffffff168173ffffffffffffffffffffffffffffffffffffffff161415610954576040517f08c379a000000000000000000000000000000000000000000000000000000000815260040161094b90613146565b60405180910390fd5b80915050919050565b610965610fec565b73ffffffffffffffffffffffffffffffffffffffff16610983610b87565b73ffffffffffffffffffffffffffffffffffffffff16146109d9576040517f08c379a00000000000000000000000000000000000000000000000000000000081526004016109d0906131e6565b60405180910390fd5b60005b8151811015610a4257610a2f83838381518110610a22577f4e487b7100000000000000000000000000000000000000000000000000000000600052603260045260246000fd5b6020026020010151610ccd565b8080610a3a906135ab565b9150506109dc565b505050565b60008073ffffffffffffffffffffffffffffffffffffffff168273ffffffffffffffffffffffffffffffffffffffff161415610ab8576040517f08c379a0000000000000000000000000000000000000000000000000000000008152600401610aaf90613126565b60405180910390fd5b600360008373ffffffffffffffffffffffffffffffffffffffff1673ffffffffffffffffffffffffffffffffffffffff168152602001908152602001600020549050919050565b610b07610fec565b73ffffffffffffffffffffffffffffffffffffffff16610b25610b87565b73ffffffffffffffffffffffffffffffffffffffff1614610b7b576040517f08c379a0000000000000000000000000000000000000000000000000000000008152600401610b72906131e6565b60405180910390fd5b610b8560006113f3565b565b6000600b60009054906101000a900473ffffffffffffffffffffffffffffffffffffffff16905090565b606060018054610bc090613548565b80601f0160208091040260200160405190810160405280929190818152602001828054610bec90613548565b8015610c395780601f10610c0e57610100808354040283529160200191610c39565b820191906000526020600020905b815481529060010190602001808311610c1c57829003601f168201915b5050505050905090565b610c55610c4e610fec565b83836114b9565b5050565b610c6a610c64610fec565b836110ad565b610ca9576040517f08c379a0000000000000000000000000000000000000000000000000000000008152600401610ca090613266565b60405180910390fd5b610cb584848484611626565b50505050565b6060610cc682611682565b9050919050565b610cd5610fec565b73ffffffffffffffffffffffffffffffffffffffff16610cf3610b87565b73ffffffffffffffffffffffffffffffffffffffff1614610d49576040517f08c379a0000000000000000000000000000000000000000000000000000000008152600401610d40906131e6565b60405180910390fd5b6000610d55600c6117d4565b9050610d61600c6117e2565b610d6b83826117f8565b610d758183611816565b505050565b6000600560008473ffffffffffffffffffffffffffffffffffffffff1673ffffffffffffffffffffffffffffffffffffffff16815260200190815260200160002060008373ffffffffffffffffffffffffffffffffffffffff1673ffffffffffffffffffffffffffffffffffffffff16815260200190815260200160002060009054906101000a900460ff16905092915050565b610e16610fec565b73ffffffffffffffffffffffffffffffffffffffff16610e34610b87565b73ffffffffffffffffffffffffffffffffffffffff1614610e8a576040517f08c379a0000000000000000000000000000000000000000000000000000000008152600401610e81906131e6565b60405180910390fd5b600073ffffffffffffffffffffffffffffffffffffffff168173ffffffffffffffffffffffffffffffffffffffff161415610efa576040517f08c379a0000000000000000000000000000000000000000000000000000000008152600401610ef190613066565b60405180910390fd5b610f03816113f3565b50565b60007f780e9d63000000000000000000000000000000000000000000000000000000007bffffffffffffffffffffffffffffffffffffffffffffffffffffffff1916827bffffffffffffffffffffffffffffffffffffffffffffffffffffffff19161480610f795750610f788261188a565b5b9050919050565b60008073ffffffffffffffffffffffffffffffffffffffff166002600084815260200190815260200160002060009054906101000a900473ffffffffffffffffffffffffffffffffffffffff1673ffffffffffffffffffffffffffffffffffffffff1614159050919050565b600033905090565b816004600083815260200190815260200160002060006101000a81548173ffffffffffffffffffffffffffffffffffffffff021916908373ffffffffffffffffffffffffffffffffffffffff160217905550808273ffffffffffffffffffffffffffffffffffffffff16611067836108ab565b73ffffffffffffffffffffffffffffffffffffffff167f8c5be1e5ebec7d5bd14f71427d1e84f3dd0314c0f7b2291e5b200ac8c7c3b92560405160405180910390a45050565b60006110b882610f80565b6110f7576040517f08c379a00000000000000000000000000000000000000000000000000000000081526004016110ee906130e6565b60405180910390fd5b6000611102836108ab565b90508073ffffffffffffffffffffffffffffffffffffffff168473ffffffffffffffffffffffffffffffffffffffff16148061117157508373ffffffffffffffffffffffffffffffffffffffff16611159846104e9565b73ffffffffffffffffffffffffffffffffffffffff16145b8061118257506111818185610d7a565b5b91505092915050565b8273ffffffffffffffffffffffffffffffffffffffff166111ab826108ab565b73ffffffffffffffffffffffffffffffffffffffff1614611201576040517f08c379a00000000000000000000000000000000000000000000000000000000081526004016111f890613206565b60405180910390fd5b600073ffffffffffffffffffffffffffffffffffffffff168273ffffffffffffffffffffffffffffffffffffffff161415611271576040517f08c379a0000000000000000000000000000000000000000000000000000000008152600401611268906130a6565b60405180910390fd5b61127c83838361196c565b611287600082610ff4565b6001600360008573ffffffffffffffffffffffffffffffffffffffff1673ffffffffffffffffffffffffffffffffffffffff16815260200190815260200160002060008282546112d7919061345e565b925050819055506001600360008473ffffffffffffffffffffffffffffffffffffffff1673ffffffffffffffffffffffffffffffffffffffff168152602001908152602001600020600082825461132e91906133d7565b92505081905550816002600083815260200190815260200160002060006101000a81548173ffffffffffffffffffffffffffffffffffffffff021916908373ffffffffffffffffffffffffffffffffffffffff160217905550808273ffffffffffffffffffffffffffffffffffffffff168473ffffffffffffffffffffffffffffffffffffffff167fddf252ad1be2c89b69c2b068fc378daa952ba7f163c4a11628f55a4df523b3ef60405160405180910390a4505050565b6113f08161197c565b50565b6000600b60009054906101000a900473ffffffffffffffffffffffffffffffffffffffff16905081600b60006101000a81548173ffffffffffffffffffffffffffffffffffffffff021916908373ffffffffffffffffffffffffffffffffffffffff1602179055508173ffffffffffffffffffffffffffffffffffffffff168173ffffffffffffffffffffffffffffffffffffffff167f8be0079c531659141344cd1fd0a4f28419497f9722a3daafe3b4186f6b6457e060405160405180910390a35050565b8173ffffffffffffffffffffffffffffffffffffffff168373ffffffffffffffffffffffffffffffffffffffff161415611528576040517f08c379a000000000000000000000000000000000000000000000000000000000815260040161151f906130c6565b60405180910390fd5b80600560008573ffffffffffffffffffffffffffffffffffffffff1673ffffffffffffffffffffffffffffffffffffffff16815260200190815260200160002060008473ffffffffffffffffffffffffffffffffffffffff1673ffffffffffffffffffffffffffffffffffffffff16815260200190815260200160002060006101000a81548160ff0219169083151502179055508173ffffffffffffffffffffffffffffffffffffffff168373ffffffffffffffffffffffffffffffffffffffff167f17307eab39ab6107e8899845ad3d59bd9653f200f220920489ca2b5937696c31836040516116199190612fe9565b60405180910390a3505050565b61163184848461118b565b61163d848484846119cf565b61167c576040517f08c379a000000000000000000000000000000000000000000000000000000000815260040161167390613046565b60405180910390fd5b50505050565b606061168d82610f80565b6116cc576040517f08c379a00000000000000000000000000000000000000000000000000000000081526004016116c3906131a6565b60405180910390fd5b6000600a600084815260200190815260200160002080546116ec90613548565b80601f016020809104026020016040519081016040528092919081815260200182805461171890613548565b80156117655780601f1061173a57610100808354040283529160200191611765565b820191906000526020600020905b81548152906001019060200180831161174857829003601f168201915b505050505090506000611776611b66565b905060008151141561178c5781925050506117cf565b6000825111156117c15780826040516020016117a9929190612f5e565b604051602081830303815290604052925050506117cf565b6117ca84611b7d565b925050505b919050565b600081600001549050919050565b6001816000016000828254019250508190555050565b611812828260405180602001604052806000815250611c24565b5050565b61181f82610f80565b61185e576040517f08c379a000000000000000000000000000000000000000000000000000000000815260040161185590613166565b60405180910390fd5b80600a60008481526020019081526020016000209080519060200190611885929190612619565b505050565b60007f80ac58cd000000000000000000000000000000000000000000000000000000007bffffffffffffffffffffffffffffffffffffffffffffffffffffffff1916827bffffffffffffffffffffffffffffffffffffffffffffffffffffffff1916148061195557507f5b5e139f000000000000000000000000000000000000000000000000000000007bffffffffffffffffffffffffffffffffffffffffffffffffffffffff1916827bffffffffffffffffffffffffffffffffffffffffffffffffffffffff1916145b80611965575061196482611c7f565b5b9050919050565b611977838383611ce9565b505050565b61198581611dfd565b6000600a600083815260200190815260200160002080546119a590613548565b9050146119cc57600a600082815260200190815260200160002060006119cb919061269f565b5b50565b60006119f08473ffffffffffffffffffffffffffffffffffffffff16611f0e565b15611b59578373ffffffffffffffffffffffffffffffffffffffff1663150b7a02611a19610fec565b8786866040518563ffffffff1660e01b8152600401611a3b9493929190612f9d565b602060405180830381600087803b158015611a5557600080fd5b505af1925050508015611a8657506040513d601f19601f82011682018060405250810190611a839190612b5d565b60015b611b09573d8060008114611ab6576040519150601f19603f3d011682016040523d82523d6000602084013e611abb565b606091505b50600081511415611b01576040517f08c379a0000000000000000000000000000000000000000000000000000000008152600401611af890613046565b60405180910390fd5b805181602001fd5b63150b7a0260e01b7bffffffffffffffffffffffffffffffffffffffffffffffffffffffff1916817bffffffffffffffffffffffffffffffffffffffffffffffffffffffff191614915050611b5e565b600190505b949350505050565b606060405180602001604052806000815250905090565b6060611b8882610f80565b611bc7576040517f08c379a0000000000000000000000000000000000000000000000000000000008152600401611bbe90613226565b60405180910390fd5b6000611bd1611b66565b90506000815111611bf15760405180602001604052806000815250611c1c565b80611bfb84611f21565b604051602001611c0c929190612f5e565b6040516020818303038152906040525b915050919050565b611c2e83836120ce565b611c3b60008484846119cf565b611c7a576040517f08c379a0000000000000000000000000000000000000000000000000000000008152600401611c7190613046565b60405180910390fd5b505050565b60007f01ffc9a7000000000000000000000000000000000000000000000000000000007bffffffffffffffffffffffffffffffffffffffffffffffffffffffff1916827bffffffffffffffffffffffffffffffffffffffffffffffffffffffff1916149050919050565b611cf483838361229c565b600073ffffffffffffffffffffffffffffffffffffffff168373ffffffffffffffffffffffffffffffffffffffff161415611d3757611d32816122a1565b611d76565b8173ffffffffffffffffffffffffffffffffffffffff168373ffffffffffffffffffffffffffffffffffffffff1614611d7557611d7483826122ea565b5b5b600073ffffffffffffffffffffffffffffffffffffffff168273ffffffffffffffffffffffffffffffffffffffff161415611db957611db481612457565b611df8565b8273ffffffffffffffffffffffffffffffffffffffff168273ffffffffffffffffffffffffffffffffffffffff1614611df757611df6828261259a565b5b5b505050565b6000611e08826108ab565b9050611e168160008461196c565b611e21600083610ff4565b6001600360008373ffffffffffffffffffffffffffffffffffffffff1673ffffffffffffffffffffffffffffffffffffffff1681526020019081526020016000206000828254611e71919061345e565b925050819055506002600083815260200190815260200160002060006101000a81549073ffffffffffffffffffffffffffffffffffffffff021916905581600073ffffffffffffffffffffffffffffffffffffffff168273ffffffffffffffffffffffffffffffffffffffff167fddf252ad1be2c89b69c2b068fc378daa952ba7f163c4a11628f55a4df523b3ef60405160405180910390a45050565b600080823b905060008111915050919050565b60606000821415611f69576040518060400160405280600181526020017f300000000000000000000000000000000000000000000000000000000000000081525090506120c9565b600082905060005b60008214611f9b578080611f84906135ab565b915050600a82611f94919061342d565b9150611f71565b60008167ffffffffffffffff811115611fdd577f4e487b7100000000000000000000000000000000000000000000000000000000600052604160045260246000fd5b6040519080825280601f01601f19166020018201604052801561200f5781602001600182028036833780820191505090505b5090505b600085146120c257600182612028919061345e565b9150600a8561203791906135f4565b603061204391906133d7565b60f81b81838151811061207f577f4e487b7100000000000000000000000000000000000000000000000000000000600052603260045260246000fd5b60200101907effffffffffffffffffffffffffffffffffffffffffffffffffffffffffffff1916908160001a905350600a856120bb919061342d565b9450612013565b8093505050505b919050565b600073ffffffffffffffffffffffffffffffffffffffff168273ffffffffffffffffffffffffffffffffffffffff16141561213e576040517f08c379a000000000000000000000000000000000000000000000000000000000815260040161213590613186565b60405180910390fd5b61214781610f80565b15612187576040517f08c379a000000000000000000000000000000000000000000000000000000000815260040161217e90613086565b60405180910390fd5b6121936000838361196c565b6001600360008473ffffffffffffffffffffffffffffffffffffffff1673ffffffffffffffffffffffffffffffffffffffff16815260200190815260200160002060008282546121e391906133d7565b92505081905550816002600083815260200190815260200160002060006101000a81548173ffffffffffffffffffffffffffffffffffffffff021916908373ffffffffffffffffffffffffffffffffffffffff160217905550808273ffffffffffffffffffffffffffffffffffffffff16600073ffffffffffffffffffffffffffffffffffffffff167fddf252ad1be2c89b69c2b068fc378daa952ba7f163c4a11628f55a4df523b3ef60405160405180910390a45050565b505050565b6008805490506009600083815260200190815260200160002081905550600881908060018154018082558091505060019003906000526020600020016000909190919091505550565b600060016122f784610a47565b612301919061345e565b90506000600760008481526020019081526020016000205490508181146123e6576000600660008673ffffffffffffffffffffffffffffffffffffffff1673ffffffffffffffffffffffffffffffffffffffff168152602001908152602001600020600084815260200190815260200160002054905080600660008773ffffffffffffffffffffffffffffffffffffffff1673ffffffffffffffffffffffffffffffffffffffff168152602001908152602001600020600084815260200190815260200160002081905550816007600083815260200190815260200160002081905550505b6007600084815260200190815260200160002060009055600660008573ffffffffffffffffffffffffffffffffffffffff1673ffffffffffffffffffffffffffffffffffffffff16815260200190815260200160002060008381526020019081526020016000206000905550505050565b6000600160088054905061246b919061345e565b90506000600960008481526020019081526020016000205490506000600883815481106124c1577f4e487b7100000000000000000000000000000000000000000000000000000000600052603260045260246000fd5b906000526020600020015490508060088381548110612509577f4e487b7100000000000000000000000000000000000000000000000000000000600052603260045260246000fd5b90600052602060002001819055508160096000838152602001908152602001600020819055506009600085815260200190815260200160002060009055600880548061257e577f4e487b7100000000000000000000000000000000000000000000000000000000600052603160045260246000fd5b6001900381819060005260206000200160009055905550505050565b60006125a583610a47565b905081600660008573ffffffffffffffffffffffffffffffffffffffff1673ffffffffffffffffffffffffffffffffffffffff168152602001908152602001600020600083815260200190815260200160002081905550806007600084815260200190815260200160002081905550505050565b82805461262590613548565b90600052602060002090601f016020900481019282612647576000855561268e565b82601f1061266057805160ff191683800117855561268e565b8280016001018555821561268e579182015b8281111561268d578251825591602001919060010190612672565b5b50905061269b91906126df565b5090565b5080546126ab90613548565b6000825580601f106126bd57506126dc565b601f0160209004906000526020600020908101906126db91906126df565b5b50565b5b808211156126f85760008160009055506001016126e0565b5090565b600061270f61270a84613306565b6132e1565b9050808382526020820190508285602086028201111561272e57600080fd5b60005b8581101561277857813567ffffffffffffffff81111561275057600080fd5b80860161275d89826128a6565b85526020850194506020840193505050600181019050612731565b5050509392505050565b600061279561279084613332565b6132e1565b9050828152602081018484840111156127ad57600080fd5b6127b8848285613506565b509392505050565b60006127d36127ce84613363565b6132e1565b9050828152602081018484840111156127eb57600080fd5b6127f6848285613506565b509392505050565b60008135905061280d81613cd5565b92915050565b600082601f83011261282457600080fd5b81356128348482602086016126fc565b91505092915050565b60008135905061284c81613cec565b92915050565b60008135905061286181613d03565b92915050565b60008151905061287681613d03565b92915050565b600082601f83011261288d57600080fd5b813561289d848260208601612782565b91505092915050565b600082601f8301126128b757600080fd5b81356128c78482602086016127c0565b91505092915050565b6000813590506128df81613d1a565b92915050565b6000602082840312156128f757600080fd5b6000612905848285016127fe565b91505092915050565b6000806040838503121561292157600080fd5b600061292f858286016127fe565b9250506020612940858286016127fe565b9150509250929050565b60008060006060848603121561295f57600080fd5b600061296d868287016127fe565b935050602061297e868287016127fe565b925050604061298f868287016128d0565b9150509250925092565b600080600080608085870312156129af57600080fd5b60006129bd878288016127fe565b94505060206129ce878288016127fe565b93505060406129df878288016128d0565b925050606085013567ffffffffffffffff8111156129fc57600080fd5b612a088782880161287c565b91505092959194509250565b60008060408385031215612a2757600080fd5b6000612a35858286016127fe565b925050602083013567ffffffffffffffff811115612a5257600080fd5b612a5e85828601612813565b9150509250929050565b60008060408385031215612a7b57600080fd5b6000612a89858286016127fe565b9250506020612a9a8582860161283d565b9150509250929050565b60008060408385031215612ab757600080fd5b6000612ac5858286016127fe565b925050602083013567ffffffffffffffff811115612ae257600080fd5b612aee858286016128a6565b9150509250929050565b60008060408385031215612b0b57600080fd5b6000612b19858286016127fe565b9250506020612b2a858286016128d0565b9150509250929050565b600060208284031215612b4657600080fd5b6000612b5484828501612852565b91505092915050565b600060208284031215612b6f57600080fd5b6000612b7d84828501612867565b91505092915050565b600060208284031215612b9857600080fd5b6000612ba6848285016128d0565b91505092915050565b612bb881613492565b82525050565b612bc7816134a4565b82525050565b6000612bd882613394565b612be281856133aa565b9350612bf2818560208601613515565b612bfb816136e1565b840191505092915050565b6000612c118261339f565b612c1b81856133bb565b9350612c2b818560208601613515565b612c34816136e1565b840191505092915050565b6000612c4a8261339f565b612c5481856133cc565b9350612c64818560208601613515565b80840191505092915050565b6000612c7d602b836133bb565b9150612c88826136f2565b604082019050919050565b6000612ca06032836133bb565b9150612cab82613741565b604082019050919050565b6000612cc36026836133bb565b9150612cce82613790565b604082019050919050565b6000612ce6601c836133bb565b9150612cf1826137df565b602082019050919050565b6000612d096024836133bb565b9150612d1482613808565b604082019050919050565b6000612d2c6019836133bb565b9150612d3782613857565b602082019050919050565b6000612d4f602c836133bb565b9150612d5a82613880565b604082019050919050565b6000612d726038836133bb565b9150612d7d826138cf565b604082019050919050565b6000612d95602a836133bb565b9150612da08261391e565b604082019050919050565b6000612db86029836133bb565b9150612dc38261396d565b604082019050919050565b6000612ddb602e836133bb565b9150612de6826139bc565b604082019050919050565b6000612dfe6020836133bb565b9150612e0982613a0b565b602082019050919050565b6000612e216031836133bb565b9150612e2c82613a34565b604082019050919050565b6000612e44602c836133bb565b9150612e4f82613a83565b604082019050919050565b6000612e676020836133bb565b9150612e7282613ad2565b602082019050919050565b6000612e8a6029836133bb565b9150612e9582613afb565b604082019050919050565b6000612ead602f836133bb565b9150612eb882613b4a565b604082019050919050565b6000612ed06021836133bb565b9150612edb82613b99565b604082019050919050565b6000612ef36031836133bb565b9150612efe82613be8565b604082019050919050565b6000612f16602c836133bb565b9150612f2182613c37565b604082019050919050565b6000612f396030836133bb565b9150612f4482613c86565b604082019050919050565b612f58816134fc565b82525050565b6000612f6a8285612c3f565b9150612f768284612c3f565b91508190509392505050565b6000602082019050612f976000830184612baf565b92915050565b6000608082019050612fb26000830187612baf565b612fbf6020830186612baf565b612fcc6040830185612f4f565b8181036060830152612fde8184612bcd565b905095945050505050565b6000602082019050612ffe6000830184612bbe565b92915050565b6000602082019050818103600083015261301e8184612c06565b905092915050565b6000602082019050818103600083015261303f81612c70565b9050919050565b6000602082019050818103600083015261305f81612c93565b9050919050565b6000602082019050818103600083015261307f81612cb6565b9050919050565b6000602082019050818103600083015261309f81612cd9565b9050919050565b600060208201905081810360008301526130bf81612cfc565b9050919050565b600060208201905081810360008301526130df81612d1f565b9050919050565b600060208201905081810360008301526130ff81612d42565b9050919050565b6000602082019050818103600083015261311f81612d65565b9050919050565b6000602082019050818103600083015261313f81612d88565b9050919050565b6000602082019050818103600083015261315f81612dab565b9050919050565b6000602082019050818103600083015261317f81612dce565b9050919050565b6000602082019050818103600083015261319f81612df1565b9050919050565b600060208201905081810360008301526131bf81612e14565b9050919050565b600060208201905081810360008301526131df81612e37565b9050919050565b600060208201905081810360008301526131ff81612e5a565b9050919050565b6000602082019050818103600083015261321f81612e7d565b9050919050565b6000602082019050818103600083015261323f81612ea0565b9050919050565b6000602082019050818103600083015261325f81612ec3565b9050919050565b6000602082019050818103600083015261327f81612ee6565b9050919050565b6000602082019050818103600083015261329f81612f09565b9050919050565b600060208201905081810360008301526132bf81612f2c565b9050919050565b60006020820190506132db6000830184612f4f565b92915050565b60006132eb6132fc565b90506132f7828261357a565b919050565b6000604051905090565b600067ffffffffffffffff821115613321576133206136b2565b5b602082029050602081019050919050565b600067ffffffffffffffff82111561334d5761334c6136b2565b5b613356826136e1565b9050602081019050919050565b600067ffffffffffffffff82111561337e5761337d6136b2565b5b613387826136e1565b9050602081019050919050565b600081519050919050565b600081519050919050565b600082825260208201905092915050565b600082825260208201905092915050565b600081905092915050565b60006133e2826134fc565b91506133ed836134fc565b9250827fffffffffffffffffffffffffffffffffffffffffffffffffffffffffffffffff0382111561342257613421613625565b5b828201905092915050565b6000613438826134fc565b9150613443836134fc565b92508261345357613452613654565b5b828204905092915050565b6000613469826134fc565b9150613474836134fc565b92508282101561348757613486613625565b5b828203905092915050565b600061349d826134dc565b9050919050565b60008115159050919050565b60007fffffffff0000000000000000000000000000000000000000000000000000000082169050919050565b600073ffffffffffffffffffffffffffffffffffffffff82169050919050565b6000819050919050565b82818337600083830152505050565b60005b83811015613533578082015181840152602081019050613518565b83811115613542576000848401525b50505050565b6000600282049050600182168061356057607f821691505b6020821081141561357457613573613683565b5b50919050565b613583826136e1565b810181811067ffffffffffffffff821117156135a2576135a16136b2565b5b80604052505050565b60006135b6826134fc565b91507fffffffffffffffffffffffffffffffffffffffffffffffffffffffffffffffff8214156135e9576135e8613625565b5b600182019050919050565b60006135ff826134fc565b915061360a836134fc565b92508261361a57613619613654565b5b828206905092915050565b7f4e487b7100000000000000000000000000000000000000000000000000000000600052601160045260246000fd5b7f4e487b7100000000000000000000000000000000000000000000000000000000600052601260045260246000fd5b7f4e487b7100000000000000000000000000000000000000000000000000000000600052602260045260246000fd5b7f4e487b7100000000000000000000000000000000000000000000000000000000600052604160045260246000fd5b6000601f19601f8301169050919050565b7f455243373231456e756d657261626c653a206f776e657220696e646578206f7560008201527f74206f6620626f756e6473000000000000000000000000000000000000000000602082015250565b7f4552433732313a207472616e7366657220746f206e6f6e20455243373231526560008201527f63656976657220696d706c656d656e7465720000000000000000000000000000602082015250565b7f4f776e61626c653a206e6577206f776e657220697320746865207a65726f206160008201527f6464726573730000000000000000000000000000000000000000000000000000602082015250565b7f4552433732313a20746f6b656e20616c7265616479206d696e74656400000000600082015250565b7f4552433732313a207472616e7366657220746f20746865207a65726f2061646460008201527f7265737300000000000000000000000000000000000000000000000000000000602082015250565b7f4552433732313a20617070726f766520746f2063616c6c657200000000000000600082015250565b7f4552433732313a206f70657261746f7220717565727920666f72206e6f6e657860008201527f697374656e7420746f6b656e0000000000000000000000000000000000000000602082015250565b7f4552433732313a20617070726f76652063616c6c6572206973206e6f74206f7760008201527f6e6572206e6f7220617070726f76656420666f7220616c6c0000000000000000602082015250565b7f4552433732313a2062616c616e636520717565727920666f7220746865207a6560008201527f726f206164647265737300000000000000000000000000000000000000000000602082015250565b7f4552433732313a206f776e657220717565727920666f72206e6f6e657869737460008201527f656e7420746f6b656e0000000000000000000000000000000000000000000000602082015250565b7f45524337323155524953746f726167653a2055524920736574206f66206e6f6e60008201527f6578697374656e7420746f6b656e000000000000000000000000000000000000602082015250565b7f4552433732313a206d696e7420746f20746865207a65726f2061646472657373600082015250565b7f45524337323155524953746f726167653a2055524920717565727920666f722060008201527f6e6f6e6578697374656e7420746f6b656e000000000000000000000000000000602082015250565b7f4552433732313a20617070726f76656420717565727920666f72206e6f6e657860008201527f697374656e7420746f6b656e0000000000000000000000000000000000000000602082015250565b7f4f776e61626c653a2063616c6c6572206973206e6f7420746865206f776e6572600082015250565b7f4552433732313a207472616e73666572206f6620746f6b656e2074686174206960008201527f73206e6f74206f776e0000000000000000000000000000000000000000000000602082015250565b7f4552433732314d657461646174613a2055524920717565727920666f72206e6f60008201527f6e6578697374656e7420746f6b656e0000000000000000000000000000000000602082015250565b7f4552433732313a20617070726f76616c20746f2063757272656e74206f776e6560008201527f7200000000000000000000000000000000000000000000000000000000000000602082015250565b7f4552433732313a207472616e736665722063616c6c6572206973206e6f74206f60008201527f776e6572206e6f7220617070726f766564000000000000000000000000000000602082015250565b7f455243373231456e756d657261626c653a20676c6f62616c20696e646578206f60008201527f7574206f6620626f756e64730000000000000000000000000000000000000000602082015250565b7f4552433732314275726e61626c653a2063616c6c6572206973206e6f74206f7760008201527f6e6572206e6f7220617070726f76656400000000000000000000000000000000602082015250565b613cde81613492565b8114613ce957600080fd5b50565b613cf5816134a4565b8114613d0057600080fd5b50565b613d0c816134b0565b8114613d1757600080fd5b50565b613d23816134fc565b8114613d2e57600080fd5b5056fea26469706673582212200969cb25893c3ef5ffe9f80655f3031ef9283055d38aed11d9aef604fb04c4e364736f6c63430008040033",
    "linkReferences": {},
    "deployedLinkReferences": {}
}